{"contracts/Engine.sol":{"Engine":{"abi":[{"inputs":[{"internalType":"uint256","name":"input_1","type":"uint256"},{"internalType":"uint256","name":"input_2","type":"uint256"}],"name":"bitwise_or","outputs":[{"internalType":"uint256","name":"","type":"uint256"}],"stateMutability":"pure","type":"function"}],"evm":{"bytecode":{"linkReferences":{},"object":"608060405234801561001057600080fd5b5061012f806100206000396000f3fe6080604052348015600f57600080fd5b506004361060285760003560e01c8063ec1fba2214602d575b600080fd5b60436004803603810190603f9190609a565b6057565b604051604e919060e0565b60405180910390f35b6000818317905092915050565b600080fd5b6000819050919050565b607a816069565b8114608457600080fd5b50565b6000813590506094816073565b92915050565b6000806040838503121560ae5760ad6064565b5b600060ba858286016087565b925050602060c9858286016087565b9150509250929050565b60da816069565b82525050565b600060208201905060f3600083018460d3565b9291505056fea2646970667358221220bdc491331372bdf333974c0ea6bf9b8beb72dcdeb54d3ff0ef73a5c6fed37dc964736f6c63430008110033","opcodes":"PUSH1 0x80 PUSH1 0x40 MSTORE CALLVALUE DUP1 ISZERO PUSH2 0x10 JUMPI PUSH1 0x0 DUP1 REVERT JUMPDEST POP PUSH2 0x12F DUP1 PUSH2 0x20 PUSH1 0x0 CODECOPY PUSH1 0x0 RETURN INVALID PUSH1 0x80 PUSH1 0x40 MSTORE CALLVALUE DUP1 ISZERO PUSH1 0xF JUMPI PUSH1 0x0 DUP1 REVERT JUMPDEST POP PUSH1 0x4 CALLDATASIZE LT PUSH1 0x28 JUMPI PUSH1 0x0 CALLDATALOAD PUSH1 0xE0 SHR DUP1 PUSH4 0xEC1FBA22 EQ PUSH1 0x2D JUMPI JUMPDEST PUSH1 0x0 DUP1 REVERT JUMPDEST PUSH1 0x43 PUSH1 0x4 DUP1 CALLDATASIZE SUB DUP2 ADD SWAP1 PUSH1 0x3F SWAP2 SWAP1 PUSH1 0x9A JUMP JUMPDEST PUSH1 0x57 JUMP JUMPDEST PUSH1 0x40 MLOAD PUSH1 0x4E SWAP2 SWAP1 PUSH1 0xE0 JUMP JUMPDEST PUSH1 0x40 MLOAD DUP1 SWAP2 SUB SWAP1 RETURN JUMPDEST PUSH1 0x0 DUP2 DUP4 OR SWAP1 POP SWAP3 SWAP2 POP POP JUMP JUMPDEST PUSH1 0x0 DUP1 REVERT JUMPDEST PUSH1 0x0 DUP2 SWAP1 POP SWAP2 SWAP1 POP JUMP JUMPDEST PUSH1 0x7A DUP2 PUSH1 0x69 JUMP JUMPDEST DUP2 EQ PUSH1 0x84 JUMPI PUSH1 0x0 DUP1 REVERT JUMPDEST POP JUMP JUMPDEST PUSH1 0x0 DUP2 CALLDATALOAD SWAP1 POP PUSH1 0x94 DUP2 PUSH1 0x73 JUMP JUMPDEST SWAP3 SWAP2 POP POP JUMP JUMPDEST PUSH1 0x0 DUP1 PUSH1 0x40 DUP4 DUP6 SUB SLT ISZERO PUSH1 0xAE JUMPI PUSH1 0xAD PUSH1 0x64 JUMP JUMPDEST JUMPDEST PUSH1 0x0 PUSH1 0xBA DUP6 DUP3 DUP7 ADD PUSH1 0x87 JUMP JUMPDEST SWAP3 POP POP PUSH1 0x20 PUSH1 0xC9 DUP6 DUP3 DUP7 ADD PUSH1 0x87 JUMP JUMPDEST SWAP2 POP POP SWAP3 POP SWAP3 SWAP1 POP JUMP JUMPDEST PUSH1 0xDA DUP2 PUSH1 0x69 JUMP JUMPDEST DUP3 MSTORE POP POP JUMP JUMPDEST PUSH1 0x0 PUSH1 0x20 DUP3 ADD SWAP1 POP PUSH1 0xF3 PUSH1 0x0 DUP4 ADD DUP5 PUSH1 0xD3 JUMP JUMPDEST SWAP3 SWAP2 POP POP JUMP INVALID LOG2 PUSH5 0x6970667358 0x22 SLT KECCAK256 0xBD 0xC4 SWAP2 CALLER SGT PUSH19 0xBDF333974C0EA6BF9B8BEB72DCDEB54D3FF0EF PUSH20 0xA5C6FED37DC964736F6C63430008110033000000 "},"methodIdentifiers":{"bitwise_or(uint256,uint256)":"ec1fba22"}}}}}