{
  "_format": "hh-sol-artifact-1",
  "contractName": "Game",
  "sourceName": "contracts/Game.sol",
  "abi": [
    {
      "inputs": [
        {
          "internalType": "uint256",
          "name": "input_1",
          "type": "uint256"
        },
        {
          "internalType": "uint256",
          "name": "input_2",
          "type": "uint256"
        }
      ],
      "name": "bitwise_or",
      "outputs": [
        {
          "internalType": "uint256",
          "name": "",
          "type": "uint256"
        }
      ],
      "stateMutability": "pure",
      "type": "function"
    },
    {
      "inputs": [
        {
          "internalType": "uint256",
          "name": "guess",
          "type": "uint256"
        }
      ],
      "name": "game",
      "outputs": [
        {
          "internalType": "bool",
          "name": "result",
          "type": "bool"
        }
      ],
      "stateMutability": "view",
      "type": "function"
    }
  ],
  "bytecode": "0x608060405234801561001057600080fd5b50610322806100206000396000f3fe608060405234801561001057600080fd5b50600436106100365760003560e01c8063cddbe7291461003b578063ec1fba221461006b575b600080fd5b61005560048036038101906100509190610183565b61009b565b60405161006291906101cb565b60405180910390f35b610085600480360381019061008091906101e6565b61013b565b6040516100929190610235565b60405180910390f35b6000806008426040516020016100b19190610271565b6040516020818303038152906040528051906020012060001c6100d491906102bb565b905060006008426040516020016100eb9190610271565b6040516020818303038152906040528051906020012060001c61010e91906102bb565b9050600061011c838361013b565b905084810361012e5760019350610133565b600093505b505050919050565b6000818317905092915050565b600080fd5b6000819050919050565b6101608161014d565b811461016b57600080fd5b50565b60008135905061017d81610157565b92915050565b60006020828403121561019957610198610148565b5b60006101a78482850161016e565b91505092915050565b60008115159050919050565b6101c5816101b0565b82525050565b60006020820190506101e060008301846101bc565b92915050565b600080604083850312156101fd576101fc610148565b5b600061020b8582860161016e565b925050602061021c8582860161016e565b9150509250929050565b61022f8161014d565b82525050565b600060208201905061024a6000830184610226565b92915050565b6000819050919050565b61026b6102668261014d565b610250565b82525050565b600061027d828461025a565b60208201915081905092915050565b7f4e487b7100000000000000000000000000000000000000000000000000000000600052601260045260246000fd5b60006102c68261014d565b91506102d18361014d565b9250826102e1576102e061028c565b5b82820690509291505056fea2646970667358221220e8b3e55740717da6f7e15bdecdd4a25037bf6137505524c809bbb965e167dfc464736f6c63430008110033",
  "linkReferences": {},
  "deployedLinkReferences": {}
}